:100000000C945D000C947C000C947C000C947C009F
:100010000C947C000C947C000C947C000C947C0070
:100020000C947C000C947C000C947C000C947C0060
:100030000C947C000C947C000C947C000C947C0050
:100040000C947E000C947C000C947C000C947C003E
:100050000C947C000C947C000C947C000C947C0030
:100060000C947C000C947C000C947C000C947C0020
:100070000C947C000C947C000C947C000C947C0010
:100080000C947C000C947C000C947C00084AD73BB8
:100090003BCE016E84BCBFFDC12F3D6C74319ABD57
:1000A00056833DDA3D00C77F11BED9E4BB4C3E917B
:1000B0006BAAAABE000000803F0011241FBECFEF34
:1000C000D0E1DEBFCDBF12E0A0E0B1E0EAE9F4E2AA
:1000D00000E00BBF02C007900D92A830B107D9F71E
:1000E00012E0A8E0B2E001C01D92AE3AB107E1F71C
:1000F0000E9421040C944B120C9400001F920F924A
:100100000FB60F920BB60F9211242F933F934F937C
:100110005F936F937F938F939F93AF93BF93EF936F
:10012000FF93609108027091090280910A029091F8
:100130000B022FE632E143E05BE30E94A70B6093E2
:1001400008027093090280930A0290930B0283E8DD
:1001500082BFFF91EF91BF91AF919F918F917F915E
:100160006F915F914F913F912F910F900BBE0F9028
:100170000FBE0F901F901895982F84EA80937400FB
:100180008091740087FFFCCF80917100887F883058
:10019000D9F780ED8093730084E880937400809198
:1001A000740087FFFCCF80917100887F8831D9F778
:1001B0009093730084E8809374008091740087FFAB
:1001C000FCCF80917100887F8832D9F760937300EB
:1001D00084E8809374008091740087FFFCCF809145
:1001E0007100887F8832D9F784E98093740008957C
:1001F000982F84EA809374008091740087FFFCCF6D
:1002000080917100887F8830D9F780ED80937300EA
:1002100084E8809374008091740087FFFCCF809104
:100220007100887F8831D9F79093730084E88093B8
:1002300074008091740087FFFCCF80917100887FEB
:100240008832D9F784EA809374008091740087FF24
:10025000FCCF80917100887F8031D9F781ED809348
:10026000730084E8809374008091740087FFFCCF52
:1002700080917100887F8034D9F784E8809374007E
:100280008091740087FFFCCF80917100887F883552
:10029000D9F78091730094E99093740008958BE3EB
:1002A0000E94F800809361028CE30E94F800809322
:1002B0009B028DE30E94F8008093AD028EE30E94C2
:1002C000F800809325028FE30E94F80080932E02AD
:1002D00080E40E94F8008093400283E40E94F800CA
:1002E00080937A0284E40E94F8008093AC0285E453
:1002F0000E94F80080931C0286E40E94F80080931C
:100300005F0287E40E94F80080933F0288E40E9425
:10031000F8008093600208952F923F924F925F926F
:100320006F927F928F929F92AF92BF92CF92DF9205
:10033000EF92FF920F931F93CF93DF9322243324E6
:100340000E944F012091610280919B02522E442411
:1003500090E0842995299093420280934102E09095
:100360003302F09034020091350210913602609110
:10037000410270914202709561957F4F882777FD09
:100380008095982F0E94DA0D9B01AC01C801B7013E
:100390000E94A70B6093330270933402809335025E
:1003A000909336022091AD0280912502722E662430
:1003B00090E0862997299093420280934102E09031
:1003C0000C02F0900D0200910E0210910F0260914C
:1003D000410270914202709561957F4F882777FDA9
:1003E0008095982F0E94DA0D9B01AC01C801B701DE
:1003F0000E94A70B60930C0270930D0280930E0273
:1004000090930F0220912E0280914002922E882418
:1004100090E0882999299093420280934102E090CC
:100420005702F09058020091590210915A026091BF
:10043000410270914202882777FD8095982F0E9493
:10044000DA0D9B01AC01C801B7010E94A70B6093B4
:100450005702709358028093590290935A02209148
:100460007A028091AC02B22EAA2490E08A299B29BC
:100470009093420280934102E0901802F09019029A
:1004800000911A0210911B02609141027091420288
:10049000882777FD8095982F0E94DA0D9B01AC018B
:1004A000C801B7010E94A70B60931802709319024C
:1004B00080931A0290931B0220911C0280915F028C
:1004C000D22ECC2490E08C299D29909342028093D7
:1004D0004102E090A402F090A5020091A6021091C2
:1004E000A7026091410270914202882777FD8095B2
:1004F000982F0E94DA0D9B01AC01C801B7010E9440
:10050000A70B6093A4027093A5028093A602909318
:10051000A70220913F0280916002D22FC0E090E0BC
:100520008C2B9D2B9093420280934102E0905302CA
:10053000F0905402009155021091560260914102D0
:1005400070914202882777FD8095982F0E94DA0DDE
:100550009B01AC01C801B7010E94A70B6093530235
:1005600070935402809355029093560288EE93E064
:10057000E0E9F1E03197F1F70197D1F70894211CF8
:10058000311C8AE02816310409F0DACE609133027A
:1005900070913402809135029091360220E030E073
:1005A00040E251E40E94CE0C609333027093340217
:1005B000809335029093360260910C0270910D0287
:1005C00080910E0290910F0220E030E040E251E471
:1005D0000E94CE0C60930C0270930D0280930E0269
:1005E00090930F02609157027091580280915902C6
:1005F00090915A0220E030E040E251E40E94CE0C9B
:1006000060935702709358028093590290935A0254
:10061000609118027091190280911A0290911B0248
:1006200020E030E040E251E40E94CE0C60931802DA
:100630007093190280931A0290931B026091A40296
:100640007091A5028091A6029091A70220E030E06F
:1006500040E251E40E94CE0C6093A4027093A50284
:100660008093A6029093A702609153027091540266
:10067000809155029091560220E030E040E251E432
:100680000E94CE0C609353027093540280935502E3
:10069000909356028091330290913402A0913502DA
:1006A000B091360280933B0290933C02A0933D02AE
:1006B000B0933E0280910C0290910D02A0910E0227
:1006C000B0910F028093260290932702A0932802F4
:1006D000B09329028091570290915802A09159023B
:1006E000B0915A0280939C0290939D02A0939E0227
:1006F000B0939F028091180290911902A0911A0262
:10070000B0911B028093370290933802A093390274
:10071000B0933A028091A4029091A502A091A60202
:10072000B091A7028093100290931102A09312023D
:10073000B09313028091530290915402A0915502FC
:10074000B091560280935B0290935C02A0935D028D
:10075000B0935E02DF91CF911F910F91FF90EF90C8
:10076000DF90CF90BF90AF909F908F907F906F90D1
:100770005F904F903F902F900895982F80919B000D
:1007800085FFFCCF90939C0008959C0197FF09C0C2
:1007900080919B0085FFFCCF309521953F4F8DE2E6
:1007A00005C080919B0085FFFCCF80E280939C0078
:1007B00080919B0085FFFCCFC90160E177E20E9438
:1007C0002D10605D60939C0080919B0085FFFCCFA5
:1007D000C90160E177E20E942D1068EE73E00E948B
:1007E0002D10605D60939C0080919B0085FFFCCF85
:1007F000C90168EE73E00E942D1064E670E00E946B
:100800002D10605D60939C0080919B0085FFFCCF64
:10081000C90164E670E00E942D106AE070E00E9459
:100820002D10605D60939C0080919B0085FFFCCF44
:10083000C9016AE070E00E942D10805D80939C00E9
:1008400008952F923F925F926F927F928F929F9224
:10085000AF92BF92CF92DF92EF92FF920F931F93CE
:10086000DF93CF93CDB7DEB764970FB6F894DEBFB2
:100870000FBECDBF10929B0088E180939A0096E056
:1008800090939D001092980087E68093990084E0F1
:10089000809374008CE08093700093BF83E882BFE4
:1008A00081E087BF8BE660E00E94BC008AE165E0E2
:1008B0000E94BC000E948C0180E88FBF80919B0049
:1008C00085FFFCCF8AE080939C0080919B0085FF90
:1008D000FCCF8DE080939C0080919B0085FFFCCF36
:1008E00083E580939C0080E090E0A0E0B0E08093FE
:1008F000210290932202A0932302B09324028093BA
:100900007F0290938002A0938102B0938202809331
:100910004F0290935002A0935102B09352028093E1
:10092000720290937302A0937402B0937502809345
:10093000830290938402A0938502B09386028093F1
:10094000470290934802A0934902B0934A028093D1
:10095000430290934402A0934502B09346028093D1
:10096000140290931502A0931602B093170280937D
:100970006E0290936F02A0937002B0937102809305
:100980001D0290931E02A0931F02B0932002809339
:100990007B0290937C02A0937D02B0937E028093B1
:1009A0004B0290934C02A0934D02B0934E0221E073
:1009B00030E03A87298738872F833E832D831C8236
:1009C0001B821A82198280E4582E0E944F01809166
:1009D0008F0290919002A0919102B0919202809327
:1009E0002F0290933002A0933102B0933202809193
:1009F0008B0290918C02A0918D02B0918E02809317
:100A0000970290939802A0939902B0939A028091D2
:100A1000870290918802A0918902B0918A02809306
:100A2000660290936702A0936802B09369022091D6
:100A3000610280919B022C871B8690E0AB85BC8570
:100A40008A2B9B2B9093420280934102609141023A
:100A500070914202882777FD8095982F0E94DA0DC9
:100A60006093330270933402809335029093360280
:100A70002091AD02809125022E871D8690E0ED85A4
:100A8000FE858E2B9F2B90934202809341026091B2
:100A9000410270914202882777FD8095982F0E942D
:100AA000DA0D60930C0270930D0280930E02909306
:100AB0000F0220912E0280914002288B1F8690E029
:100AC0002F853889822B932B909342028093410289
:100AD0006091410270914202882777FD8095982F9E
:100AE0000E94DA0D60935702709358028093590266
:100AF00090935A0220917A028091AC022A8B198A33
:100B000090E0A989BA898A2B9B2B9093420280930B
:100B100041026091410270914202882777FD8095E1
:100B2000982F0E94DA0D6093180270931902809337
:100B30001A0290931B0220911C0280915F02322EB8
:100B4000222490E0822993299093420280934102CB
:100B50006091410270914202882777FD8095982F1D
:100B60000E94DA0D6093A4027093A5028093A602FE
:100B70009093A70220913F02809160022C8B1B8AE8
:100B800090E0EB89FC898E2B9F2B909342028093FF
:100B900041026091410270914202882777FD809561
:100BA000982F0E94DA0D6093530270935402809341
:100BB000550290935602609118027091190280912B
:100BC0001A0290911B022091370230913802409115
:100BD000390250913A020E94760B20E030E043E067
:100BE00053E40E94CE0C6093180270931902809314
:100BF0001A0290931B026091A4027091A502809149
:100C0000A6029091A702209110023091110240910A
:100C10001202509113020E94760B20E030E043E074
:100C200053E40E94CE0C6093A4027093A5028093BB
:100C3000A6029093A7026091530270915402809192
:100C400055029091560220915B0230915C024091D6
:100C50005D0250915E020E94760B20E030E043E09E
:100C600053E40E94CE0C609353027093540280931D
:100C70005502909356028091720290917302A09156
:100C80007402B09175028093210290932202A09386
:100C90002302B09324028091830290918402A09158
:100CA0008502B091860280937F0290938002A09388
:100CB0008102B09382028091470290914802A091F4
:100CC0004902B0914A0280934F0290935002A09340
:100CD0005102B093520260912102709122028091E0
:100CE0002302909124022091180230911902409120
:100CF0001A0250911B020E94A70B6093720270931C
:100D00007302809374029093750260917F027091D8
:100D1000800280918102909182022091A402309100
:100D2000A5024091A6025091A7020E94A70B6093D2
:100D3000830270938402809385029093860260916F
:100D40004F02709150028091510290915202209175
:100D500053023091540240915502509156020E9424
:100D6000A70B6093470270934802809349029093C7
:100D70004A02609118027091190280911A029091B2
:100D80001B0220E030E040E251E40E94AA0D8823DB
:100D900064F5609118027091190280911A02909185
:100DA0001B0220E030E040E251EC0E947A0D181660
:100DB000E4F46091720270917302809174029091D8
:100DC000750220E030E04AE754E40E94AA0D88232F
:100DD00064F480E090E0A0E0B0E080937202909331
:100DE0007302A0937402B09375026091A402709193
:100DF000A5028091A6029091A70220E030E040E297
:100E000051E40E94AA0D882364F56091A4027091B8
:100E1000A5028091A6029091A70220E030E040E276
:100E200051EC0E947A0D1816E4F4609183027091DF
:100E30008402809185029091860220E030E04AE7AA
:100E400054E40E94AA0D882364F480E090E0A0E0BE
:100E5000B0E08093830290938402A0938502B093C4
:100E600086026091530270915402809155029091D4
:100E7000560220E030E040E251E40E94AA0D8823AF
:100E800064F56091530270915402809155029091E3
:100E9000560220E030E040E251EC0E947A0D181634
:100EA000E4F4609147027091480280914902909168
:100EB0004A0220E030E04AE754E40E94AA0D882369
:100EC00064F480E090E0A0E0B0E08093470290936B
:100ED0004802A0934902B0934A02A0900C02B0903D
:100EE0000D02C0900E02D0900F022091330230917B
:100EF00034024091350250913602CA01B9010E9474
:100F0000D40B7B018C012091570230915802409103
:100F1000590250915A02CA01B9010E94D40B9B0197
:100F2000AC01C801B7010E94A70B0E9455119B019B
:100F3000AC01D7FAD094D7F8D094C601B5010E947D
:100F4000CE0C0E948B1020E030E044E353E40E947A
:100F5000D40B28ED3FE049E450E40E94CE0C6093AE
:100F6000A0027093A1028093A2029093A302A0908A
:100F70003302B0903402C0903502D09036022091F6
:100F80000C0230910D0240910E0250910F02CA01E5
:100F9000B9010E94D40B7B018C0120915702309142
:100FA00058024091590250915A02CA01B9010E9457
:100FB000D40B9B01AC01C801B7010E94A70B0E9492
:100FC00055119B01AC01C601B5010E94CE0C0E94D7
:100FD0008B1020E030E044E353E40E94D40B28ED72
:100FE0003FE049E450E40E94CE0C60936A027093A3
:100FF0006B0280936C0290936D0260911802709165
:10100000190280911A0290911B02209108023091DE
:10101000090240910A0250910B02E0902F02F090D9
:10102000300200913102109132020E94D40BA801CB
:1010300097010E94A70B6093930270939402809390
:101040009502909396026091A4027091A5028091FE
:10105000A6029091A70220910802309109024091C6
:101060000A0250910B02E0909702F09098020091D2
:10107000990210919A020E94D40BA80197010E9434
:10108000A70B609362027093630280936402909353
:1010900065026091530270915402809155029091C3
:1010A0005602209108023091090240910A025091A3
:1010B0000B02E0906602F0906702009168021091C6
:1010C00069020E94D40BA80197010E94A70B6093AC
:1010D0002A0270932B0280932C0290932D0280E0C1
:1010E00090E0A0E0B0E08093080290930902A09302
:1010F0000A02B0930B028FE892ECA5E7BFE380935E
:10110000A8029093A902A093AA02B093AB026091A7
:10111000A8027091A9028091AA029091AB0220913D
:101120009302309194024091950250919602E09082
:10113000A802F090A9020091AA021091AB0260905F
:10114000A0027090A1028090A2029090A3020E943F
:10115000D40B5B016C0160E070E080E89FE3A801C4
:1011600097010E94760BA40193010E94D40B9B016E
:10117000AC01C601B5010E94A70B60938F0270936A
:10118000900280939102909392026091A8027091D4
:10119000A9028091AA029091AB0220916202309143
:1011A00063024091640250916502E090A802F090C1
:1011B000A9020091AA021091AB0260906A0270909D
:1011C0006B0280906C0290906D020E94D40B5B01C8
:1011D0006C0160E070E080E89FE3A80197010E9445
:1011E000760BA40193010E94D40B9B01AC01C601B4
:1011F000B5010E94A70B60938B0270938C028093C1
:101200008D0290938E0280912A0290912B02A091E0
:101210002C02B0912D028093870290938802A093B4
:101220008902B0938A026091830270918402809156
:1012300085029091860220E030E44CE955E40E945A
:101240007A0D181684F160914702709148028091DE
:10125000490290914A0220E030E44CE955E40E94B2
:101260007A0D181604F160918302709184028091C6
:1012700085029091860220E030E44CE955EC0E9412
:10128000AA0D87FD10C060914702709148028091BD
:10129000490290914A0220E030E44CE955EC0E946A
:1012A000AA0D88235CF4A985BA85AB2B39F0539439
:1012B0001A861986E1E0F0E0FC83EB8360918302FB
:1012C00070918402809185029091860220E030E640
:1012D0004AE656E40E947A0D181684F1609147029E
:1012E000709148028091490290914A0220E030E6D4
:1012F0004AE656E40E947A0D181604F160918302C2
:1013000070918402809185029091860220E030E6FF
:101310004AE656EC0E94AA0D87FD10C06091470274
:10132000709148028091490290914A0220E030E693
:101330004AE656EC0E94AA0D882364F42F81388572
:10134000232B41F032E0530E18861F8281E090E09B
:101350009C838B8360910C0270910D0280910E0230
:1013600090910F0220E030E44CE956E40E947A0D9F
:10137000181684F1609157027091580280915902B9
:1013800090915A0220E030E44CE956E40E947A0D34
:10139000181604F160910C0270910D0280910E02FA
:1013A00090910F0220E030E44CE956EC0E94AA0D27
:1013B00087FD10C0609157027091580280915902C8
:1013C00090915A0220E030E44CE956EC0E94AA0DBC
:1013D00088236CF4AD81BE81AB2B49F0B4E05B0E89
:1013E0001E821D82E1E0F0E0FC83EB8304C02B81D0
:1013F0003C81232B29F089819A8101969A838983E4
:10140000A981BA81A95EB34004F180919B0085FF58
:10141000FCCF50929C0080E090E064960FB6F89468
:10142000DEBF0FBECDBFCF91DF911F910F91FF9017
:10143000EF90DF90CF90BF90AF909F908F907F9074
:101440006F905F903F902F90089580E49CE9019702
:10145000F1F7BBCAA0E0B0E0E0E3FAE00C9454106E
:10146000DC012B01FA019C91923008F439C1EB01A7
:101470008881823008F433C1943069F4843009F0F3
:101480002FC111969C9111978981981709F428C151
:10149000A0E0B1E025C1843009F421C18230A9F473
:1014A000923009F01DC19A01AD0188E0EA0109906E
:1014B000AE01E90109929E018150C1F7E2018981E3
:1014C00011969C918923818308C1923009F407C148
:1014D00012962D903C901397EB018A819B81149674
:1014E000AD90BD90CD90DC901797EC80FD800E8183
:1014F0001F819101281B390BB90137FF04C06627F2
:101500007727621B730B603271050CF061C01216F5
:1015100013066CF537014801062E04C09694879493
:10152000779467940A94D2F721E030E040E050E0ED
:1015300004C0220F331F441F551F6A95D2F7215054
:101540003040404050402E213F214023512321155F
:1015500031054105510521F021E030E040E050E047
:1015600079018A01E628F728082919293CC0232B8C
:10157000D1F1260E371E35014601062E04C0969481
:101580008794779467940A94D2F721E030E040E0A2
:1015900050E004C0220F331F441F551F6A95D2F735
:1015A00021503040404050402A213B214C215D21B8
:1015B000211531054105510521F021E030E040E0E1
:1015C00050E059016A01A628B728C828D9280BC0BD
:1015D000821593052CF01C01AA24BB24650103C0CD
:1015E000EE24FF24870111969C91D20111968C91D3
:1015F000981709F445C0992339F0A80197012A19D1
:101600003B094C095D0906C0A60195012E193F0949
:10161000400B510B57FD08C0118233822282248374
:101620003583468357831DC081E0818333822282C4
:1016300088279927DC01821B930BA40BB50B8483AD
:101640009583A683B7830DC0220F331F441F551FF8
:1016500024833583468357838281938101979383C3
:1016600082832481358146815781DA01C90101973E
:10167000A109B1098F5F9F4FAF4FBF4328F30BC044
:10168000918333822282EA0CFB1C0C1D1D1DE48217
:10169000F5820683178383E0808324813581468128
:1016A000578157FF1AC0C901AA2797FDA095BA2FE5
:1016B00081709070A070B0705695479537952795BA
:1016C000822B932BA42BB52B84839583A683B7837E
:1016D00082819381019693838283DF0101C0D201CD
:1016E000CD01CDB7DEB7E2E10C947010A0E2B0E01E
:1016F000ECE7FBE00C94601069837A838B839C8316
:101700002D833E834F835887E9E0EE2EF12CEC0EBB
:10171000FD1ECE010196B7010E945C0F8E010F5E87
:101720001F4FCE010596B8010E945C0F8A8991E097
:1017300089278A8BC701B801AE01475E5F4F0E94BF
:101740002A0A0E94870EA096E6E00C947C10A0E284
:10175000B0E0EDEAFBE00C94601069837A838B8340
:101760009C832D833E834F835887F9E0EF2EF12C25
:10177000EC0EFD1ECE010196B7010E945C0F8E019A
:101780000F5E1F4FCE010596B8010E945C0FC70186
:10179000B801AE01475E5F4F0E942A0A0E94870E81
:1017A000A096E6E00C947C10A0E2B0E0EAEDFBE04D
:1017B0000C94541069837A838B839C832D833E839E
:1017C0004F835887CE010196BE01675F7F4F0E940D
:1017D0005C0FCE010596BE016F5E7F4F0E945C0FCD
:1017E0009985923088F089898230C8F0943019F454
:1017F000823051F404C0843029F4923081F480E0C6
:1018000091E0C6C0923049F420E09A858A89981305
:1018100021E02A87CE010996BBC0823049F420E03E
:101820009A858A89981321E02A8BCE014196B0C00F
:101830002D843E844F8458886D887E888F88988C4C
:10184000EE24FF248701AA24BB24650140E050E078
:1018500060E070E0E0E0F0E0C10181709070892B01
:10186000E9F0E60CF71C081D191D9A01AB012A0DC1
:101870003B1D4C1D5D1D80E090E0A0E0B0E0E61453
:10188000F7040805190520F481E090E0A0E0B0E03D
:10189000BA01A901480F591F6A1F7B1FAA0CBB1C64
:1018A000CC1CDD1C97FE08C081E090E0A0E0B0E019
:1018B000A82AB92ACA2ADB2A3196E032F10549F072
:1018C000660C771C881C991C56944794379427946F
:1018D000C3CFFA85EA892B893C898B859C85280FA3
:1018E000391F2E5F3F4F17C0CA0181709070892B3E
:1018F00061F016950795F794E79480E090E0A0E0FA
:10190000B0E8E82AF92A0A2B1B2B7695679557959C
:1019100047952F5F3F4F77FDE7CF0CC0440F551F12
:10192000661F771F17FD4160EE0CFF1C001F111F83
:1019300021503040403090E0590790E0690790E432
:10194000790760F32B8F3C8FDB01CA018F77907092
:10195000A070B07080349105A105B10561F447FD18
:101960000AC0E114F1040105110529F0405C5F4F44
:101970006F4F7F4F40781A8EFE1711F081E08A8FEB
:101980004D8F5E8F6F8F78A383E0898FCE0149964C
:101990000E94870EA096E2E10C947010A8E1B0E0DE
:1019A000E4EDFCE00C945C1069837A838B839C8368
:1019B0002D833E834F835887B9E0EB2EF12CEC0E3C
:1019C000FD1ECE010196B7010E945C0F8E010F5ED5
:1019D0001F4FCE010596B8010E945C0F2985223069
:1019E00008F47EC03989323010F4B8017CC08A8591
:1019F0009A8989278A87243011F0223031F42317FD
:101A000009F06EC060E071E06EC0343039F41D86BC
:101A10001E861F86188A1C861B8604C0323021F45D
:101A200084E08987B7015FC02B853C858B899C89C1
:101A3000281B390B3C872B87ED84FE840F85188982
:101A4000AD88BE88CF88D88CEA14FB040C051D0530
:101A500040F4EE0CFF1C001F111F215030403C874A
:101A60002B8720E030E040E050E080E090E0A0E014
:101A7000B0E460E070E0EA14FB040C051D0540F0E2
:101A8000282B392B4A2B5B2BEA18FB080C091D0964
:101A9000B695A79597958795EE0CFF1C001F111F13
:101AA0006F5F7F4F6F31710531F7DA01C9018F77B1
:101AB0009070A070B07080349105A105B10561F4FB
:101AC00027FD0AC0E114F1040105110529F0205C8D
:101AD0003F4F4F4F5F4F20782D873E874F87588B62
:101AE000BE01675F7F4FCB010E94870E6896EAE0D8
:101AF0000C947810A8E1B0E0E0E8FDE00C946010F0
:101B000069837A838B839C832D833E834F8358879D
:101B100089E0E82EF12CEC0EFD1ECE010196B701F6
:101B20000E945C0F8E010F5E1F4FCE010596B8011B
:101B30000E945C0F8985823040F08989823028F0CC
:101B4000C701B8010E94D40F01C08FEF6896E6E08C
:101B50000C947C10A8E1B0E0E0EBFDE00C94601088
:101B600069837A838B839C832D833E834F8358873D
:101B700089E0E82EF12CEC0EFD1ECE010196B70196
:101B80000E945C0F8E010F5E1F4FCE010596B801BB
:101B90000E945C0F8985823040F08989823028F06C
:101BA000C701B8010E94D40F01C081E06896E6E049
:101BB0000C947C10A8E0B0E0E0EEFDE00C945D1029
:101BC0009B01AC0183E08983DA01C9018827B7FD55
:101BD00083959927AA27BB27B82E211531054105E2
:101BE000510519F482E089833AC08823A9F0203096
:101BF00080E0380780E0480780E8580729F460E073
:101C000070E080E09FEC30C0EE24FF248701E21AF0
:101C1000F30A040B150B02C079018A018EE1C82E6C
:101C2000D12CDC82CB82ED82FE820F831887C80123
:101C3000B7010E94380E01971816190684F4082E71
:101C400004C0EE0CFF1C001F111F0A94D2F7ED8296
:101C5000FE820F831887C81AD90ADC82CB82BA8227
:101C6000CE0101960E94870E2896E9E00C94791027
:101C7000EF92FF920F931F937B018C0180E0E81697
:101C800080E0F80681E0080780E0180788F48FEF0D
:101C9000E816F1040105110531F028F088E090E024
:101CA000A0E0B0E017C080E090E0A0E0B0E012C09B
:101CB00080E0E81680E0F80680E0080781E0180779
:101CC00028F088E190E0A0E0B0E004C080E190E07E
:101CD000A0E0B0E020E230E040E050E0281B390B0B
:101CE0004A0B5B0B04C016950795F794E7948A9509
:101CF000D2F7F701E85FFE4F8081281B31094109C7
:101D00005109C9011F910F91FF90EF900895DF9243
:101D1000EF92FF920F931F93FC01E480F580068100
:101D20001781D1808081823048F480E090E0A0E18A
:101D3000B0E0E82AF92A0A2B1B2BA5C0843009F44D
:101D40009FC0823021F4EE24FF24870105C0E114F6
:101D5000F1040105110519F4E0E0F0E096C062819C
:101D600073819FEF623879070CF05BC022E83FEF88
:101D7000261B370B2A3131052CF020E030E040E003
:101D800050E02AC0B801A701022E04C076956795DD
:101D9000579547950A94D2F781E090E0A0E0B0E033
:101DA00004C0880F991FAA1FBB1F2A95D2F701975D
:101DB000A109B1098E219F21A023B1230097A1057C
:101DC000B10521F081E090E0A0E0B0E09A01AB0124
:101DD000282B392B4A2B5B2BDA01C9018F779070A6
:101DE000A070B07080349105A105B10539F427FFCA
:101DF00009C0205C3F4F4F4F5F4F04C0215C3F4FF5
:101E00004F4F5F4FE0E0F0E02030A0E03A07A0E065
:101E10004A07A0E45A0710F0E1E0F0E079018A01F6
:101E200027C06038710564F5FB01E158FF4FD80108
:101E3000C7018F779070A070B07080349105A105B4
:101E4000B10539F4E7FE0DC080E490E0A0E0B0E019
:101E500004C08FE390E0A0E0B0E0E80EF91E0A1F96
:101E60001B1F17FF05C016950795F794E794319649
:101E700087E016950795F794E7948A95D1F705C002
:101E8000EE24FF248701EFEFF0E06E2F67956627C1
:101E90006795902F9F77D794DD24D7948E2F8695C2
:101EA000492F462B582F5D29B701CA011F910F9169
:101EB000FF90EF90DF900895FC01DB01408151819C
:101EC0002281622F6F7770E0221F2227221F9381C9
:101ED000892F880F822B282F30E0991F9927991F6F
:101EE00011969C93119721153105A9F541155105BE
:101EF0006105710511F482E037C082E89FEF139607
:101F00009C938E9312979A01AB0167E0220F331FC7
:101F1000441F551F6A95D1F783E08C930DC0220FA3
:101F2000331F441F551F12968D919C911397019753
:101F300013969C938E931297203080E0380780E0B0
:101F4000480780E4580758F314962D933D934D931A
:101F50005C93179708952F3F310579F4411551058A
:101F60006105710519F484E08C93089564FF03C042
:101F700081E08C9312C01C9210C02F5730401396F2
:101F80003C932E93129783E08C9387E0440F551F68
:101F9000661F771F8A95D1F7706414964D935D93F1
:101FA0006D937C93179708951F93DC01FB019C911F
:101FB000923008F447C08081823008F443C09430E6
:101FC00051F411961C91843099F58181682F70E04D
:101FD000611B71093FC0843021F0923031F48230AE
:101FE000B9F18181882389F12DC011961C91119737
:101FF0008230F1F081811817D9F412962D913C911D
:102000001397828193818217930794F028173907D9
:10201000BCF014968D919D910D90BC91A02D2481C2
:10202000358146815781281739074A075B0718F41D
:10203000112341F00AC082179307A407B50740F4A3
:10204000112319F061E070E005C06FEF7FEF02C06F
:1020500060E070E0CB011F91089597FB092E0726E1
:102060000AD077FD04D00CD006D000201AF4709569
:1020700061957F4F0895F6F7909581959F4F08954C
:10208000AA1BBB1B51E107C0AA1FBB1FA617B7079E
:1020900010F0A61BB70B881F991F5A95A9F78095BA
:1020A0009095BC01CD0108952F923F924F925F927F
:1020B0006F927F928F929F92AF92BF92CF92DF9258
:1020C000EF92FF920F931F93CF93DF93CDB7DEB7BD
:1020D000CA1BDB0B0FB6F894DEBF0FBECDBF099451
:1020E0002A88398848885F846E847D848C849B84A8
:1020F000AA84B984C884DF80EE80FD800C811B81B6
:10210000AA81B981CE0FD11D0FB6F894DEBF0FBEE4
:10211000CDBFED010895DF93DD27B92FBF7740E8EC
:102120005FE31616170648075B0710F4D92F51D046
:102130009F938F937F936F93F6D0ECE8F0E013D0EA
:1021400037D02F913F914F915F9154D0DD2349F0CB
:102150009058A2EA2AED3FE049EC5FE3D0785D2792
:10216000F2D0DF9125C0DF93CF931F930F93FF929F
:10217000EF92DF927B018C01689405C0DA2EEF01AB
:1021800039D0FE01E894A59125913591459155915D
:10219000AEF3EF01D8D0FE019701A801DA9479F7E8
:1021A000DF90EF90FF900F911F91CF91DF910895F5
:1021B000092E0394000C11F4882352F0BB0F40F455
:1021C000BF2B11F460FF04C06F5F7F4F8F4F9F4F95
:1021D00008959B01AC0160E070E080E89FE3DECBF6
:1021E00023D128F028D118F0952309F0FFC012C19F
:1021F00011244BC127D1A0F3959FD1F3950F50E047
:10220000551F629FF001729FBB27F00DB11D639FA8
:10221000AA27F00DB11DAA1F649F6627B00DA11D4E
:10222000661F829F2227B00DA11D621F739FB00DF4
:10223000A11D621F839FA00D611D221F749F332764
:10224000A00D611D231F849F600D211D822F762FFD
:102250006A2F11249F5750408AF0E1F088234AF0FA
:10226000EE0FFF1FBB1F661F771F881F9150504046
:10227000A9F79E3F510570F0B9C007C15F3FECF36D
:10228000983EDCF3869577956795B795F795E79532
:102290009F5FC1F7FE2B880F911D9695879597F943
:1022A000089511F40EF4B6C0A7C0D4D0D0F399238A
:1022B000D9F3CEF39F57550B87FFAFD00024A0E68C
:1022C00040EA900180585695979528F4805C660FF7
:1022D000771F881F20F026173707480730F4621B46
:1022E000730B840B202931294A2BA6951794079448
:1022F000202531254A2758F7660F771F881F20F0C1
:1023000026173707480730F4620B730B840B200D38
:10231000311D411DA09581F7B901842F9158880F77
:102320009695879508959B01AC013ECA7DD030F00B
:1023300082D020F031F49F3F11F41EF46BC00EF4F4
:10234000E095E7FB53C0E92F7DD080F3BA17620711
:1023500073078407950718F071F49EF595C00EF485
:10236000E0950B2EBA2FA02D0B01B90190010C01A5
:10237000CA01A0011124FF27591B99F0593F50F4BD
:10238000503E68F11A16F040A22F232F342F442715
:10239000585FF3CF469537952795A795F04053950D
:1023A000C9F77EF41F16BA0B620B730B840BBAF0DD
:1023B0009150A1F0FF0FBB1F661F771F881FC2F748
:1023C0000EC0BA0F621F731F841F48F4879577955C
:1023D0006795B795F7959E3F08F0B3CF9395880F13
:1023E00008F09927EE0F97958795089597F99F67BD
:1023F00080E870E060E008959F3F31F0915020F454
:10240000879577956795B795880F911D96958795D0
:1024100097F908959FEF80EC089591505040660F12
:10242000771F881FD2F7089500240A9416161706FE
:1024300018060906089500240A94121613061406B5
:102440000506089557FD9058440F551F59F05F3FFA
:1024500071F04795880F97FB991F61F09F3F79F0C6
:1024600087950895121613061406551FF2CF469548
:10247000F1DF08C0161617061806991FF1CF8695CA
:102480007105610508940895E894BB2766277727AE
:0A249000CB0197F90895F894FFCFEF
:10249A000000000000000000000102020303030321
:1024AA0004040404040404040505050505050505DA
:1024BA0005050505050505050606060606060606BA
:1024CA0006060606060606060606060606060606A2
:1024DA00060606060606060607070707070707078A
:1024EA000707070707070707070707070707070772
:1024FA000707070707070707070707070707070762
:10250A000707070707070707070707070707070751
:10251A000707070707070707080808080808080839
:10252A000808080808080808080808080808080821
:10253A000808080808080808080808080808080811
:10254A000808080808080808080808080808080801
:10255A0008080808080808080808080808080808F1
:10256A0008080808080808080808080808080808E1
:10257A0008080808080808080808080808080808D1
:10258A0008080808080808080808080808080808C1
:08259A000808080808080808F9
:00000001FF
